:020000040000FA
:100000000C9462000C948A000C948A000C948A0070
:100010000C948A000C948A000C948A000C948A0038
:100020000C948A000C948A000C948A000C948A0028
:100030000C948A000C948A000C948A000C948A0018
:100040000C9402030C948A000C948A000C948A008D
:100050000C948A000C948A000C948A000C948A00F8
:100060000C948A000C948A000000000023002600F3
:10007000290000000000240027002A0000000000E2
:10008000250028002B0004040404040404040202D4
:100090000202020203030303030301020408102007
:1000A0004080010204081020010204081020000012
:1000B0000008000201000003040700000000000027
:1000C00000003F0411241FBECFEFD8E0DEBFCDBF3C
:1000D00011E0A0E0B1E0EAECF8E002C005900D927A
:1000E000A037B107D9F721E0A0E7B1E001C01D9228
:1000F000A139B207E1F710E0C2E6D0E004C02197D1
:10010000FE010E945D04C136D107C9F70E944C036D
:100110000C9463040C940000833081F028F4813047
:1001200099F08230A9F008958730A9F08830C9F09D
:100130008430B1F4809180008F7D03C08091800075
:100140008F7780938000089584B58F7784BD08955C
:1001500084B58F7DFBCF8091B0008F778093B00006
:1001600008958091B0008F7DF9CF1F93CF93DF93D7
:10017000282F30E0F901E255FF4F8491F901E6564E
:10018000FF4FD491F901EA57FF4FC491CC23A9F056
:10019000162F81110E948C00EC2FF0E0EE0FFF1F54
:1001A000E458FF4FA591B4918FB7F894EC911111D9
:1001B00008C0D095DE23DC938FBFDF91CF911F91D4
:1001C0000895DE2BF8CFCF93DF9390E0FC01E65645
:1001D000FF4F24918A579F4FFC0184918823D1F0CF
:1001E00090E0880F991FFC01EE58FF4FA591B49144
:1001F000FC01E458FF4FC591D491623071F49FB770
:10020000F8943C91822F809583238C93E8812E2B48
:1002100028839FBFDF91CF9108958FB7F894EC9119
:100220002E2B2C938FBFF6CF3FB7F894809175019A
:1002300090917601A0917701B091780126B5A89BA5
:1002400005C02F3F19F00196A11DB11D3FBFBA2F68
:10025000A92F982F8827BC01CD01620F711D811D28
:10026000911D42E0660F771F881F991F4A95D1F7AD
:1002700008958F929F92AF92BF92CF92DF92EF92AA
:10028000FF924B015C010E9414016B017C010E94F2
:1002900014016C197D098E099F09683E7340810520
:1002A0009105A8F321E0821A9108A108B10888EE0F
:1002B000C80E83E0D81EE11CF11C81149104A10436
:1002C000B10429F7FF90EF90DF90CF90BF90AF90EF
:1002D0009F908F900895AF92BF92CF92DF92EF924E
:1002E000FF920F931F93CF93DF936C017B018B01E0
:1002F000040F151FEB015E01AE18BF08C017D10730
:1003000059F06991D601ED91FC910190F081E02DB9
:10031000C6010995892B79F7C501DF91CF911F910E
:100320000F91FF90EF90DF90CF90BF90AF90089526
:10033000089590E080E00895FC0101900020E9F725
:100340003197AF01481B590BBC0189E791E00C9430
:100350006B01CF93DF93EC0160E08E810E94B500CA
:1003600061E08E810E94B50060E08E810E94B50040
:100370008BE891E00197F1F7DF91CF910895CF924B
:10038000DF92EF92FF920F931F93CF93DF936C0155
:100390007C0187E0E80EF11CD0E0C0E0062F10E001
:1003A000B8010C2E02C0759567950A94E2F761704A
:1003B000F70181917F010E94B5002196C430D105DB
:1003C00079F7C601DF91CF911F910F91FF90EF90C8
:1003D000DF90CF900C94A901CF92DF92EF92FF9221
:1003E0000F931F93CF93DF93EC01F62E642F8C8134
:1003F0000E94B5008D818F3F19F060E00E94B5002A
:100400000F2D10E08F8584FF25C06E0187E0C80E98
:10041000D11CF12CE12CB8010E2C02C0759567950A
:100420000A94E2F76170F60181916F010E94B500B4
:10043000FFEFEF1AFF0A88E0E816F10461F7CE013A
:10044000DF91CF911F910F91FF90EF90DF90CF90B0
:100450000C94A901B80184E0759567958A95E1F738
:10046000CE010E94BF016F2DCE01DF91CF911F9170
:100470000F91FF90EF90DF90CF900C94BF0140E080
:10048000682F89E791E00C94EC0181E00E943F0223
:100490008BE39FE10197F1F70895CF93DF938230CB
:1004A00029F49091880198609093880180938C0141
:1004B00010928D0180E480938E0180E180938F0102
:1004C00080E58093900161E080917D010E94E300CE
:1004D00080917E018F3F19F061E00E94E30061E0AE
:1004E00080917F010E94E300C9E7D1E09E01295776
:1004F00031408091880184FD0BC084E090E021961A
:100500002817390744F461E08E810E94E300EECFA2
:1005100088E090E0F4CF8BE39DE00197F1F760E095
:1005200080917D010E94B50060E080917F010E9472
:10053000B50080917E018F3F19F060E00E94B50008
:100540008091880184FD34C063E089E791E00E94D6
:10055000BF01CBE4D6E4CE010197F1F763E089E770
:1005600091E00E94BF012197F1F763E089E791E0F4
:100570000E94BF0183E592E00197F1F762E089E70D
:1005800091E00E94BF018091880180620E943F0239
:1005900084E0809389018CE00E943F020E94450222
:1005A00082E080938A0186E0DF91CF910C943F0234
:1005B00080620E943F028BE496E40197F1F78091FC
:1005C000880180620E943F0283E592E00197F1F783
:1005D0008091880180620E943F02D5CF90918C016A
:1005E000891710F08FEF890FE82FF0E0E758FE4FE2
:1005F000848980680C943F0241E00E94EC0181E014
:1006000090E008951F920F920FB60F9211242F932E
:100610003F938F939F93AF93BF938091710190917C
:100620007201A0917301B09174013091700123E0C7
:10063000230F2D3758F50196A11DB11D2093700190
:100640008093710190937201A0937301B093740130
:100650008091750190917601A0917701B091780118
:100660000196A11DB11D8093750190937601A09311
:100670007701B0937801BF91AF919F918F913F9196
:100680002F910F900FBE0F901F90189526E8230F03
:100690000296A11DB11DD2CF789484B5826084BD2D
:1006A00084B5816084BD85B5826085BD85B5816076
:1006B00085BD80916E00816080936E0010928100F4
:1006C00080918100826080938100809181008160AF
:1006D0008093810080918000816080938000809170
:1006E000B10084608093B1008091B00081608093FC
:1006F000B00080917A00846080937A0080917A00C3
:10070000826080937A0080917A00816080937A0081
:1007100080917A00806880937A001092C10082E014
:100720000E944D0262E08EE00E94E30061E089E0F9
:100730000E94E30061E08AE00E94E30061E08BE058
:100740000E94E30080E00E94EE028CE091E00E94B3
:100750009C0181E00E94EE028DE191E00E949C01EB
:1007600068EE73E080E090E00E9439010E9445024B
:10077000CCEBD0E008EA10E094E9E92E90E0F92E05
:1007800020E0C22E20E0D22EFE018491F801A49038
:10079000F701B490BB2009F447C081110E948C007E
:1007A000EB2DF0E0EE0FFF1FE859FF4FA591B4913C
:1007B0008C91A822C9F160E08AE00E94B50061E056
:1007C0008BE00E94B50061E089E00E94B50068EC12
:1007D00070E080E090E00E94390160E089E00E94D2
:1007E000B50068EC70E080E090E00E94390180E0A4
:1007F0000E94EE028EE291E00E949C0181E00E9444
:10080000EE028FE391E00E949C0168EC70E080E0D2
:1008100090E00E9439010E944502C114D10409F4FC
:10082000B3CF0E940000B0CF0E94450280E00E943A
:10083000EE024FE050E060E571E089E791E00E9450
:100840006B0181E00E94EE024FE050E060E671E053
:1008500089E791E00E946B0168EC70E080E090E035
:100860000E94390160E089E00E94B50061E08AE001
:100870000E94B50060E08BE00E94B500CECFE9E7B2
:10088000F1E01382128284E091E09183808382E020
:1008900084838FEF858383E0868384E0878385E08C
:1008A000808786E0818787E0828713861486158695
:1008B0001686178681E00C944D02EE0FFF1F0590FF
:1008C000F491E02D0994F894FFCF00000000FC02A1
:1008D0006B0199019801202020474153204C45414C
:1008E0004B414745202000204445544543544F5236
:1008F000202D2045494620002020474153204445D3
:1009000054454354454420200020414C4552542036
:10091000414C4552542021212000202020204E4FC0
:1009200020474153202020202000202044455445CA
:0A09300043544544202020202000FD
:107E0000112484B714BE81FFF0D085E080938100F7
:107E100082E08093C00088E18093C10086E0809377
:107E2000C20080E18093C4008EE0C9D0259A86E02C
:107E300020E33CEF91E0309385002093840096BBD3
:107E4000B09BFECF1D9AA8958150A9F7CC24DD24C4
:107E500088248394B5E0AB2EA1E19A2EF3E0BF2EE7
:107E6000A2D0813461F49FD0082FAFD0023811F036
:107E7000013811F484E001C083E08DD089C08234E0
:107E800011F484E103C0853419F485E0A6D080C0E4
:107E9000853579F488D0E82EFF2485D0082F10E0AE
:107EA000102F00270E291F29000F111F8ED06801E7
:107EB0006FC0863521F484E090D080E0DECF843638
:107EC00009F040C070D06FD0082F6DD080E0C81688
:107ED00080E7D80618F4F601B7BEE895C0E0D1E017
:107EE00062D089930C17E1F7F0E0CF16F0E7DF06D8
:107EF00018F0F601B7BEE89568D007B600FCFDCFD4
:107F0000A601A0E0B1E02C9130E011968C91119780
:107F100090E0982F8827822B932B1296FA010C0160
:107F200087BEE89511244E5F5F4FF1E0A038BF0790
:107F300051F7F601A7BEE89507B600FCFDCF97BE46
:107F4000E89526C08437B1F42ED02DD0F82E2BD052
:107F50003CD0F601EF2C8F010F5F1F4F84911BD097
:107F6000EA94F801C1F70894C11CD11CFA94CF0C13
:107F7000D11C0EC0853739F428D08EE10CD085E9AC
:107F80000AD08FE07ACF813511F488E018D01DD067
:107F900080E101D065CF982F8091C00085FFFCCF94
:107FA0009093C60008958091C00087FFFCCF809118
:107FB000C00084FD01C0A8958091C6000895E0E648
:107FC000F0E098E1908380830895EDDF803219F02E
:107FD00088E0F5DFFFCF84E1DECF1F93182FE3DFCA
:107FE0001150E9F7F2DF1F91089580E0E8DFEE27F6
:047FF000FF270994CA
:027FFE00040479
:00000001FF
